:020000040800F2
:10000000600A00206D010008D5030008CD03000838
:10001000D1030008A7020008950A000800000000AC
:10002000000000000000000000000000450900087A
:10003000AB0200080000000023090008310A000894
:100040008701000887010008870100088701000870
:100050008701000887010008870100088701000860
:100060008701000887010008870100088701000850
:100070008701000887010008870100088701000840
:100080008701000887010008870100088701000830
:100090008701000887010008870100088701000820
:1000A0008701000887010008870100088701000810
:1000B0008701000887010008870100088701000800
:1000C00087010008870100088701000887010008F0
:1000D00087010008870100088701000887010008E0
:1000E00087010008870100088701000800F002F876
:1000F00000F02CF80AA090E8000C82448344AAF196
:100100000107DA4501D100F021F8AFF2090EBAE893
:100110000F0013F0010F18BFFB1A43F0010318473B
:1001200010140000201400000023002400250026E5
:10013000103A28BF78C1FBD8520728BF30C148BF4A
:100140000B6070471FB51FBD10B510BD00F076F8ED
:100150001146FFF7F7FF00F09FFC00F094F803B49E
:10016000FFF7F2FF03BC00F097F800000948804752
:1001700009480047FEE7FEE7FEE7FEE7FEE7FEE789
:10018000FEE7FEE7FEE7FEE704480549054A064BA1
:1001900070470000350A0008ED00000860040020E8
:1001A000600A002060060020600600204FF0013C3D
:1001B00050F8042B51F8043B9A4221D1A2EB0C03D6
:1001C000934313EACC1317D150F8042B51F8043B96
:1001D0009A4215D1A2EB0C03934313EACC130BD133
:1001E00050F8042B51F8043B9A4209D1A2EB0C03BE
:1001F000934313EACC13DBD04FF00000704700BFED
:10020000D01A01BAB1FA81F101F0180122FA01F015
:10021000CB40C1F12001DBB2C0B2C01A2CFA01F30D
:10022000D11A914311EAC311E6D170477047704764
:100230007047000000487047000400207546FFF733
:10024000F9FFAE4605006946534620F00700854693
:1002500018B020B5FFF798FFBDE820404FF000062A
:100260004FF000074FF000084FF0000B21F007019E
:10027000AC46ACE8C009ACE8C009ACE8C009ACE8E1
:10028000C0098D46704710B50446AFF30080204684
:10029000BDE81040FFF763BF01491820ABBEFEE781
:1002A00026000200704700BFFEE770472DE9F041CD
:1002B000024600250026002000230024002791F894
:1002C00003C00CF00F0591F803C00CF0100CBCF14A
:1002D000000F03D091F802C04CEA050591F800C068
:1002E000BCF1000F31D0146800202BE04FF0010C5E
:1002F0000CFA00F3B1F800C00CEA03069E4220D1CC
:1003000083004FF00F0C0CFA03F7BC4305FA03FC13
:100310004CEA040491F803C0BCF1280F06D14FF059
:10032000010C0CFA00FCC2F814C00AE091F803C0FA
:10033000BCF1480F05D14FF0010C0CFA00FCC2F8DB
:1003400010C0401C0828D1D31460B1F800C0BCF123
:10035000FF0F34DD546800202EE000F1080C4FF050
:10036000010808FA0CF3B1F800C00CEA03069E423B
:1003700021D183004FF00F0C0CFA03F7BC4305FAB0
:1003800003FC4CEA040491F803C0BCF1280F05D12A
:1003900000F1080C08FA0CF8C2F8148091F803C0B8
:1003A000BCF1480F07D100F1080C4FF0010808FA22
:1003B0000CF8C2F81080401C0828CED35460BDE869
:1003C000F0810AB1016100E04161704700BFFEE7C2
:1003D00000BFFEE7704700002DE9F04304460D46DC
:1003E00016461F467F2C01DDBDE8F0833F2D00DD62
:1003F000FAE7A119802902DDC4F18001CEB2E91922
:10040000402902DDC5F14001CFB2284630E0234645
:1004100029E04FEAE07C00EB5C7C4FEAEC0CDFF873
:100420005C8008EBCC1C1CF803C002464FEAE07865
:1004300000EB58784FEAE808A0EBC8094FF0010834
:1004400008FA09F82CEA080C01464FEAE07800EBBC
:1004500058784FEAE808DFF8249009EBC81808F844
:1004600003C0591CCBB2A1199942D2DC411CC8B2BD
:10047000E9198142CBDC00BFB6E700000000002094
:1004800038B5002406E0002500E06D1CB5F57A7F44
:10049000FBD3641CB4F57A7FF5D30121082000F06A
:1004A00041FA14208DF8030003208DF802004FF468
:1004B0008070ADF8000069460848FFF7F7FE4FF47A
:1004C0000070ADF8000069460448FFF7EFFE012018
:1004D00000F0E8F9012000F0F1F938BD000C01400E
:1004E00070B50546002411E080212141294009B161
:1004F000012100E00021084600F0E0F9012000F0B1
:10050000D1F9002000F0CEF9601CC4B2082CEBDB5E
:10051000012000F0C7F9002000F0C4F970BD10B54B
:10052000012000F0CBF9012000F0BCF9002000F020
:10053000C5F9002000F0B6F910BD10B5002000F09C
:10054000BDF9012000F0AEF9012000F0B7F910BDAF
:1005500010B5FFF795FFAE2000F0BCF9D52000F0F4
:10056000B9F9802000F0B6F9A82000F0B3F93F20D7
:1005700000F0B0F9D32000F0ADF9002000F0AAF9A6
:10058000402000F0A7F9A12000F0A4F9C82000F055
:10059000A1F9DA2000F09EF9122000F09BF98120E9
:1005A00000F098F9CF2000F095F9D92000F092F9E9
:1005B000F12000F08FF9DB2000F08CF9302000F002
:1005C00089F9A42000F086F9A62000F083F98D2097
:1005D00000F080F9142000F07DF9AF2000F07AF9E6
:1005E00010BD10B50246012000E050430B1EA1F1E2
:1005F0000101FAD110BD70B505460C4645F0B000BA
:1006000000F068F9102141EA141000F063F904F0D9
:100610000F0000F05FF970BDF8B506460F461446AE
:100620001D46082D0CD1A4F120000E4901EB00104D
:100630001023082239460090304600F063F80FE09E
:10064000062D0DD1A4F1200000EB4000064901EB7E
:1006500040000823062239460090304600F052F848
:10066000F8BD00007C0B00086C1100082DE9FC4768
:10067000804689461646002700200190002538E074
:10068000705D01A9C855781CC7B2032F2FDB002766
:1006900000240BE004EBC401184A02EB810001A91D
:1006A000FFF784FD00B90BE0601CC4B204EBC40189
:1006B000124A02EB810012A1FFF778FD0028E9D170
:1006C00000BF681C032190FBF1F0401E08EB0010F6
:1006D00000F0FF0A04EBC400084901EB8000001D94
:1006E00010231A4649460090504600F00BF8681C4B
:1006F000C5B2705D0028C3D1BDE8FC87A613000811
:10070000000000002DE9F04707460C469046994648
:10071000DDF820A07F2F01DDBDE8F0873F2C00DD54
:10072000FAE74B46424621463846FFF755FE00257C
:1007300070E0002669E0B8197F2800DD67E0E11766
:1007400004EB517105EBE101072900DDE4E72046E8
:10075000E21704EB527205EBE202344B03EBC212D8
:10076000BB19D25C2146E31704EB5373DB10A4EBF7
:10077000C30305FB086C1AF80CC00CFA03FC42EA30
:100780000C02E31704EB537305EBE303DFF89CC0A3
:100790000CEBC31307EB060C03F80C20E11704EB7A
:1007A000517105EBE101491C072900DD2BE02046D2
:1007B000E21704EB527205EBE202521C1B4B03EBF7
:1007C000C212BB19D25C2146E31704EB5373DB1052
:1007D000A4EBC303C3F1080305FB086C1AF80CC0B3
:1007E0004CFA03FC42EA0C02E31704EB537305EBEB
:1007F000E3035B1CDFF834C00CEBC31307EB060C00
:1008000003F80C2000BF701CC6B2464593DB00BF46
:10081000681CC5B2A9F10100C11700EB517101229A
:1008200002EBE101A94284DC00BF75E70000002073
:100830002DE9F0470646894617461D46DDF820801B
:10084000002417E0281B411E0A20FFF7CAFEB7FB51
:10085000F0F00A21B0FBF1F201FB120000F1300AC6
:1008600004FB0861C8B2434652464946FFF7D4FE2E
:10087000601CC4B2AC42E5DBBDE8F08710B50024D3
:100880000BE000212046FFF7B6FE054901EBC4103E
:10089000802100F02FF8601CC4B2082CF1DB10BDE1
:1008A0000000002010B5044622464FF48071024833
:1008B000FFF787FD10BD0000000C014010B5044695
:1008C00022464FF400710248FFF77BFD10BD000087
:1008D000000C014010B50446FFF721FE7820FFF719
:1008E000FFFD0020FFF7FCFD2046FFF7F9FDFFF7B5
:1008F00024FE10BD70B505460E46FFF710FE7820A9
:10090000FFF7EEFD4020FFF7EBFD002404E0285D3B
:10091000FFF7E6FD601CC4B2B442F8DBFFF70DFE42
:1009200070BD704729B1064A92690243044B9A612F
:1009300004E0034A92698243014B9A6170470000C8
:1009400000100240704710B500F002F810BD000022
:100950000CB50020019000903348006840F48030CE
:100960003149086000BF3048006800F40030009052
:100970000198401C0190009818B90198B0F5A06F3B
:10098000F1D12948006800F4003010B10120009036
:1009900001E0002000900098012843D1234800681E
:1009A00040F01000214908600846006820F003006C
:1009B00008600846006840F0020008601A48406875
:1009C000194948600846406848600846406840F455
:1009D000806048600846406820F47C104860084603
:1009E000406840F4E81048600846006840F08070B5
:1009F000086000BF0C48006800F000700028F9D0C3
:100A00000948406820F003000749486008464068EC
:100A100040F00200486000BF0348406800F00C004E
:100A20000828F9D10CBD000000100240002002404F
:100A30007047000010B51348006840F001001149EC
:100A4000086008464068104908400E49486008465A
:100A500000680E4908400B4908600846006820F409
:100A6000802008600846406820F4FE0048604FF48B
:100A70001F008860FFF767FF4FF0006004490860BF
:100A800010BD0000001002400000FFF8FFFFF6FE5E
:100A900008ED00E000BFFEE708B5FFF759FD34A2FE
:100AA00000211420FFF7E2FD082001230622142173
:100AB00000900020FFF7BCFE082001230322142130
:100AC00000900720FFF7B4FE082001230222142122
:100AD00000900E20FFF7ACFE082001230222142113
:100AE00000901520FFF7A4FE082001230022142106
:100AF00000901C20FFF79CFE0820012307221421F0
:100B000000902320FFF794FE0820012300221421E7
:100B100000902A20FFF78CFE0820012303221421D5
:100B200000903120FFF784FE0820012300221421C9
:100B300000903820FFF77CFE0820012302221421B8
:100B400000903F20FFF774FE0820012302221421A9
:100B500000904620FFF76CFE08200123002214219C
:100B600000904D20FFF764FEFFF788FE00BFFEE710
:100B7000E5BCA0E6B4BAE8B1AA000000000000009D
:100B8000000000000000000000000000000000F86D
:100B900000000000000000333000000000160E00CE
:100BA000160E0000000000000000000040C0784069
:100BB000C0784000043F04043F040400007088FC37
:100BC00008300000001820FF211E0000F008F0008F
:100BD000E018000000211C031E211E0000F0088800
:100BE000700000001E212324192721100000001688
:100BF0000E0000000000000000000000000000E007
:100C00001804020000000007182040000002041829
:100C1000E00000000040201807000000404080F085
:100C2000804040000202010F01020200000000F0BB
:100C3000000000000101011F01010100000000008F
:100C40000000000000B07000000000000000000084
:100C5000000000000001010101010101000000008D
:100C60000000000000303000000000000000000024
:100C700080601804006018060100000000E0100801
:100C80000810E000000F102020100F00001010F8D6
:100C9000000000000020203F202000000070080815
:100CA0000888700000302824222130000030088895
:100CB000884830000018202020110E000000C020BD
:100CC00010F8000000070424243F240000F80888DE
:100CD000880808000019212020110E0000E010886B
:100CE00088180000000F112020110E00003808089D
:100CF000C83808000000003F0000000000708808AD
:100D000008887000001C222121221C0000E010082D
:100D10000810E0000000312222110F00000000C086
:100D2000C00000000000003030000000000000C0E3
:100D3000C0000000000080B0700000000000804093
:100D4000201008000001020408102000404040402C
:100D5000404040000404040404040400000810207F
:100D600040800000002010080402010000704808C4
:100D70000808F0000000003036010000C030C8282C
:100D8000E810E0000718272423140B000000C038E7
:100D9000E0000000203C23020227382008F8888861
:100DA00088700000203F202020110E00C03008086D
:100DB00008083800071820202010080008F8080844
:100DC0000810E000203F202020100F0008F888883D
:100DD000E8081000203F20202320180008F8888809
:100DE000E8081000203F200003000000C030080881
:100DF0000838000007182020221E020008F808000A
:100E00000008F808203F210101213F20000808F8D0
:100E1000080800000020203F2020000000000808F3
:100E2000F8080800C08080807F00000008F888C0B3
:100E300028180800203F20012638200008F8080064
:100E400000000000203F20202020300008F8F8009B
:100E5000F8F80800203F003F003F200008F830C0AD
:100E60000008F808203F200007183F00E01008089D
:100E70000810E0000F10202020100F0008F80808CC
:100E80000808F000203F210101010000E0100808DF
:100E90000810E0000F18242438504F0008F8888804
:100EA00088887000203F2000030C302000708808E4
:100EB000080838000038202121221C00180808F8F2
:100EC000080818000000203F2000000008F8080073
:100ED0000008F808001F202020201F000878880044
:100EE00000C83808000007380E010000F80800F8B4
:100EF0000008F800033C0700073C0300081868805E
:100F00008068180820302C03032C30200838C800D3
:100F1000C83808000000203F200000001008080822
:100F2000C83808002038262120201800000000FEC4
:100F3000020202000000007F40404000000C30C070
:100F400000000000000000010638C000000202029C
:100F5000FE000000004040407F000000002010081C
:100F60000408102000000000000000000000000045
:100F70000000000080808080808080800002040863
:100F80000000000000000000000000000000808061
:100F9000808000000019242222223F2008F80080CF
:100FA00080000000003F112020110E000000008092
:100FB00080800000000E1120202011000000008021
:100FC0008088F800000E112020103F200000808053
:100FD00080800000001F222222221300008080F067
:100FE000888888180020203F202000000000808092
:100FF00080808000006B94949493600008F80080D7
:1010000080800000203F210000203F200080989831
:10101000000000000020203F202000000000008091
:101020009898000000C08080807F000008F80000D1
:1010300080808000203F24022D302000000808F826
:10104000000000000020203F2020000080808080E1
:1010500080808000203F20003F20003F00808000F3
:101060008080000000203F2100203F200000808081
:1010700080800000001F202020201F008080008032
:101080008000000080FFA12020110E0000000080E1
:1010900080808000000E112020A0FF8080808000D2
:1010A0008080800020203F212000010000008080FF
:1010B000808080000033242424241900008080E0F4
:1010C000808000000000001F2020000080800000C1
:1010D00000808000001F202020103F2080808000A2
:1010E0000080808000010E300806010080800080B2
:1010F000008080800F300C030C300F0000808000D7
:10110000808080000020312E0E3120008080800001
:101110000080808080818E701806010000808080B1
:10112000808080000021302C22213000000000004F
:10113000807C020200000000003F404000000000F0
:10114000FF00000000000000FF0000000002027C21
:10115000800000000040403F000000000080404050
:10116000800000800000000000010100000000007D
:1011700000000000002F000000000700070000141E
:101180007F147F1400242A7F2A120023130864622C
:1011900000364955225000000007000000001C22C4
:1011A0004100000041221C000014083E0814000801
:1011B000083E0808000000A06000000808080808B1
:1011C000000060600000002010080402003E514949
:1011D000453E0000427F40000042615149460021E7
:1011E00041454B31001814127F1000274545453901
:1011F000003C4A494930000171090503003649495C
:10120000493600064949291E000036360000000014
:10121000563600000008142241000014141414145F
:10122000000041221408000201510906003E495500
:10123000592E007C1211127C007F49494936003E2C
:1012400041414122007F4141221C007F49494941DF
:10125000007F09090901003E4149497A007F0808D9
:10126000087F0000417F4100002040413F01007F96
:1012700008142241007F40404040007F020C027F62
:10128000007F0408107F003E4141413E007F090974
:101290000906003E4151215E007F0919294600469A
:1012A000494949310001017F0101003F4040403F71
:1012B000001F2040201F003F4038403F00631408BB
:1012C0001463000708700807006151494543000096
:1012D0007F414100000204081020000041417F00CE
:1012E00000040201020400404040404000000102AE
:1012F0000400002054545478007F48444438003897
:101300004444442000384444487F0038545454181E
:1013100000087E0901020018A4A4A47C007F080430
:1013200004780000447D4000004080847D00007F00
:10133000102844000000417F4000007C041804781D
:10134000007C0804047800384444443800FC242419
:1013500024180018242418FC007C08040408004801
:101360005454542000043F444020003C4040207C22
:10137000001C2040201C003C4030403C0044281011
:101380002844001CA0A0A07C004464544C440000ED
:10139000087F41000000007F00000000417F08003E
:1013A000000804081008EFBC8C00000000000000DA
:1013B000000000000000000000000000583800009D
:1013C00000000000000000000000E3808200000038
:1013D000000000000000000000000000000000000D
:1013E0001824241800000000000000000000E4BDE4
:1013F000A000008060F8074020180F08C8080828DF
:101400001800010000FF00100C0340807F0001065F
:101410001800E5A5BD001010F01F10F000808282BA
:10142000E2928A8680004022150816610000408002
:101430007F0000000000E4B89600202020FE20205D
:10144000FF202020FF20202020000000007F4040BF
:1014500047444444474040400000E7958C0000006A
:1014600000FE929292FE929292FE00000000080806
:101470000484621E010001FE020404080800E5BCA9
:10148000A00002E222223E8080FF80A09088868019
:101490008000004382423E0000FF402106081020E9
:1014A0004000E6B4BA001060028C0020100817A4B7
:1014B0004424140C000004047E01040402FF414192
:1014C000414141FF0000E8B1AA00008282BAAAAA05
:1014D000AAABAAAAAABA828280000201A0AAAA562E
:1014E00056AAF2122A224042010000000000FF0129
:1014F00001013109090909897101010101FFFF8019
:1015000080808080809681808080808080FFFF0145
:10151000818181FD8991A1C1FD81818101FFFF80D0
:101520008080809F888482819F80808080FF0000EF
:101530004015000800000020600A00002801000893
:04000005080000ED02
:00000001FF
