:020000040800F2
:100000002005002049010008E5040008D902000885
:10001000E1040008BD0100082F0B000800000000EB
:10002000000000000000000000000000BD06000805
:10003000C10100080000000059050008A9080008D7
:100040006301000863010008630100086301000800
:1000500063010008630100086301000863010008F0
:1000600063010008630100086301000863010008E0
:1000700063010008630100086301000863010008D0
:1000800063010008630100086301000863010008C0
:1000900063010008630100086301000863010008B0
:1000A00063010008630100086301000863010008A0
:1000B0006301000863010008630100086301000890
:1000C0006301000863010008630100086301000880
:1000D000630100080D0900086301000863010008BE
:1000E0006301000863010008630100086301000860
:1000F0006301000863010008630100086301000850
:10010000630100086301000863010008630100083F
:10011000630100086301000863010008630100082F
:10012000630100086301000863010008630100081F
:10013000DFF810D000F030F800480047890E0008C2
:10014000AFF300802005002006488047064800479E
:10015000FEE7FEE7FEE7FEE7FEE7FEE7FEE7FEE777
:10016000FEE7FEE7AD0800083101000830B50B4698
:10017000014600202022012409E021FA02F59D42D7
:1001800005D303FA02F5491B04FA02F52844151EAB
:10019000A2F10102F1DC30BD064C074D06E0E0683B
:1001A00040F0010394E8070098471034AC42F6D3BE
:1001B000FFF7C2FFAC120008CC12000800BFFEE738
:1001C00070472DE9F041024600250026002000235B
:1001D0000024002791F803C00CF00F0591F803C02C
:1001E0000CF0100CBCF1000F03D091F802C04CEAE7
:1001F000050591F800C0BCF1000F31D01468002053
:100200002BE04FF0010C0CFA00F3B1F800C00CEA3F
:1002100003069E4220D183004FF00F0C0CFA03F727
:10022000BC4305FA03FC4CEA040491F803C0BCF19A
:10023000280F06D14FF0010C0CFA00FCC2F814C0D4
:100240000AE091F803C0BCF1480F05D14FF0010C52
:100250000CFA00FCC2F810C0401C0828D1D314606E
:10026000B1F800C0BCF1FF0F34DD546800202EE06F
:1002700000F1080C4FF0010808FA0CF3B1F800C0C7
:100280000CEA03069E4221D183004FF00F0C0CFABA
:1002900003F7BC4305FA03FC4CEA040491F803C0DD
:1002A000BCF1280F05D100F1080C08FA0CF8C2F8CF
:1002B000148091F803C0BCF1480F07D100F1080C7D
:1002C0004FF0010808FA0CF8C2F81080401C08280A
:1002D000CED35460BDE8F08100BFFEE770B50024C6
:1002E0000025002600201E4908601E48006820F0F6
:1002F00070401C4908600846006840F000400860F3
:10030000042000F003FD00BF18E00120144908603C
:10031000032000F0FBFC00261348D0F81C0108B1B4
:10032000012600E0002646EA4400C4B200200C4941
:100330000860032000F0EAFC681CC5B2082DE4DB6D
:100340000848006820F070400649086008460068C8
:1003500040F0004008600A2000F0D8FC204670BD44
:1003600098812142000C01400080214210B51348C1
:10037000006820F07040114908600846006840F0AD
:100380004050086001200E490860042000F0BEFCC7
:1003900001200C49C1F89C01042000F0B7FC0020AA
:1003A0000749091D0860042000F0B0FC0020054941
:1003B000C1F89801042000F0A9FC10BD000C014018
:1003C000988121420080214210B50F48006820F03A
:1003D00070400D4908600846006840F040500860D1
:1003E00000200A490860042000F090FC0120084920
:1003F000C1F89801042000F089FC0120034908603D
:10040000042000F083FC10BD000C01409C812142BF
:100410000080214270B504461F48006820F07040FB
:100420001D4908600846006840F0405008600025FB
:100430001BE0002019490860052000F067FC04F06B
:10044000800020B101201549091D086003E000204B
:100450001249091D0860012010490860052000F0BC
:1004600055FC6006040E681CC5B2082DE1DB0020B7
:100470000A490860042000F06FFC0748006820F07B
:100480007040054908600846006840F00040086078
:10049000042000F061FC70BD000C014098812142F5
:1004A00008B50121082000F059F8C020ADF800007F
:1004B00010208DF8030003208DF8020069460548DE
:1004C000FFF77FFE0120044908600449C1F89C0140
:1004D00008BD0000000C01409881214200802142AB
:1004E00000BFFEE77047000070B5002100230F2217
:1004F000C47804B3154C246804F4E064C4F5E064E3
:10050000210AC1F10403CA40447804FA03F1847853
:100510001440214309010E4C0678A155047804F0DB
:100520001F050124AC4005786D11AD0005F1E025F3
:10053000C5F8004109E0047804F01F050124AC402F
:10054000044D0678761145F8264070BD0CED00E0AC
:1005500000E400E080E100E07047000029B1064AB5
:1005600092690243044B9A6104E0034A9269824310
:10057000014B9A61704700000010024030B5002125
:100580000022002400232D4D6D6805F00C0121B1DF
:10059000042905D0082923D105E0294D056022E072
:1005A000274D05601FE0254D6D6805F47012234D41
:1005B0006D6805F48034022505EB92421CB9214D8B
:1005C000554305600BE01D4D6D6805F400351DB108
:1005D0001C4D5543056002E0194D5543056002E08E
:1005E000174D056000BF00BF144D6D6805F0F001A8
:1005F0000909154D6B5C0568DD4045600F4D6D6860
:1006000005F4E061090A104D6B5C4568DD408560CA
:100610000A4D6D6805F46051C90A0B4D6B5C456865
:10062000DD40C560054D6D6805F44041890B074DFF
:100630006B5CC568B5FBF3F5056130BD0010024089
:1006400000127A0000093D00140000202400002060
:1006500070B5002500240020154908601548006881
:1006600020F07040134908600846006840F00040E0
:100670000860042000F070FB01200F49C1F89801C8
:10068000042000F069FB01E0601CC4B208487C381B
:10069000006808B1642CF7DB0020054908600420DD
:1006A00000F05AFB642C00DA0125284670BD0000DA
:1006B00098812142000C01400080214270470000D7
:1006C00010B51648006820F07040144908600846CC
:1006D000006840F040500860002011490860042084
:1006E00000F03AFB01200F49C1F89C01042000F002
:1006F00033FB01200A490860042000F02DFB002094
:100700000849C1F89801042000F026FB00200449A4
:10071000091D0860042000F01FFB10BD000C014003
:10072000988121420080214210B51848006820F0CD
:100730007040164908600846006840F04050086064
:10074000002013490860042000F006FB0020114936
:10075000C1F89C01042000F0FFFA01200C49086058
:10076000042000F0F9FA00200A49C1F89801042099
:1007700000F0F2FA0548006820F070400349086074
:100780000846006840F00040086010BD000C0140C1
:10079000988121420080214210B500F001F810BD7F
:1007A0000CB50020019000903348006840F4803080
:1007B0003149086000BF3048006800F40030009004
:1007C0000198401C0190009818B90198B0F5A06FED
:1007D000F1D12948006800F4003010B101200090E8
:1007E00001E0002000900098012843D123480068D0
:1007F00040F01000214908600846006820F003001E
:1008000008600846006840F0020008601A48406826
:10081000194948600846406848600846406840F406
:10082000806048600846406820F47C1048600846B4
:10083000406840F4E81048600846006840F0807066
:10084000086000BF0C48006800F000700028F9D074
:100850000948406820F0030007494860084640689E
:1008600040F00200486000BF0348406800F00C0000
:100870000828F9D10CBD0000001002400020024001
:10088000042808D14FF0E021096941F004014FF03C
:10089000E022116107E04FF0E021096921F0040135
:1008A0004FF0E022116170477047000010B5134807
:1008B000006840F00100114908600846406810498E
:1008C00008400E494860084600680E4908400B4938
:1008D00008600846006820F48020086008464068E8
:1008E00020F4FE0048604FF41F008860FFF754FFBB
:1008F0004FF000600449086010BD00000010024085
:100900000000FFF8FFFFF6FE08ED00E010B540F232
:1009100025511D4800F04AF810B31B4800F002F9B9
:10092000C4B21A48008800F40040C8B917480088CB
:1009300000F4804060B10A2C03D0002013490880E5
:1009400020E01248008840F400401049088019E077
:100950000D2C06D10D48008840F480400B490880DA
:1009600010E00A480088C0F30D0009490C540748FC
:100970000088401C0549088008460088C72801DD1A
:100980000020088010BD0000003801405000002009
:100990005400002021B1828942F40052828104E097
:1009A00082894DF6FF731A408281704770B5024606
:1009B000002400230025002040F66A16B14200D131
:1009C00000BFC1F3421501F01F03012606FA03F32D
:1009D000012D02D19689334006E0022D02D1168AFC
:1009E000334001E0968A33400C12012606FA04F4E3
:1009F0001688344013B10CB1012000E0002070BD16
:100A0000F0B50346002400260025002040F66A17B2
:100A1000B94200D100BF1846C1F3421401F01F06CD
:100A2000012707FA06F5012C01D10C3004E0022C55
:100A300001D1103000E014301AB107682F4307606D
:100A400002E00768AF430760F0BD00002DE9F04702
:100A500086B005460E460024A24600BFA1460027E8
:100A6000B08900B100BF2F462C8A4CF6FF700440BD
:100A7000F08804432C82AC894EF6F3100440B08811
:100A800031890843718908430443AC81AC8A4FF62D
:100A9000FF400440B0890443AC8201A8FFF76EFD1B
:100AA0001F48874202D1DDF810A001E0DDF80CA05C
:100AB000A88900F4004040B10AEBCA0000EB0A101C
:100AC00031684900B0FBF1F807E00AEBCA0000EB1F
:100AD0000A1031688900B0FBF1F86420B8FBF0F02F
:100AE00004012009642101FB1089A88900F4004059
:100AF00040B1322000EBC900B0FBF1F000F007007C
:100B0000044308E0322000EB09106421B0FBF1F04F
:100B100000F00F0004432C8106B0BDE8F087000010
:100B20000038014001468888C0F30800704700BFC4
:100B3000FEE700000FB4054B10B503A9044A029864
:100B400000F018F810BC5DF814FB0000A50D0008BB
:100B50004C00002002E008C8121F08C1002AFAD188
:100B600070477047002001E001C1121F002AFBD12D
:100B7000704700002DE9FF4F89B09B4604460025D1
:100B800006E025280BD05A460B999047641C6D1C33
:100B900020780028F5D10DB02846BDE8F08F002759
:100BA000B8460122474900E0074314F8013F203BC3
:100BB00002FA03F00842F7D120782E2819D114F850
:100BC000010F47F004072A280ED06FF02F0220787B
:100BD000A0F1300109290CD808EB880102EB410192
:100BE00000EB0108641CF2E70A98641C50F8048BBF
:100BF0000A9020780028CED0642808D0692806D032
:100C000075281ED05A460B9990476D1C58E00A99DA
:100C10004FF00A0901C90A91002802DA40422D2149
:100C200002E0390504D52B218DF82010012103E0C5
:100C3000F90704D02021F7E78A4608AE0DE000212D
:100C4000FAE70A994FF00A0901C90A91F7E74946FC
:100C5000FFF78CFA303106F8011D0028F7D1ADEB13
:100C6000060000F12009780701D44FF00108C845BB
:100C700002DDA8EB090000E000208046002706E026
:100C800008A85A46C05D0B9990476D1C7F1C5745BC
:100C9000F6DB04E030205A460B9990476D1CB8F102
:100CA0000001A8F10108F5DC05E016F8010B5A4631
:100CB0000B9990476D1CB9F10001A9F10109F4DC11
:100CC000641C65E70928010010B56FF00400FFF708
:100CD000D7FD0A4800680A49B0FBF1F009490870DD
:100CE0000846007800EB4001C1EBC0104FF6FF71E1
:100CF00001EAC0000449088010BD00000000002087
:100D000000127A0046000020480000200146114AE7
:100D100012884A434FF0E0235A6100229A611A4632
:100D2000126942F001021A6100BF4FF0E02210691F
:100D300000F001021AB100F48032002AF5D04FF021
:100D4000E022126922F001024FF0E0231A61002232
:100D50009A617047480000200146114A12784A43C0
:100D60004FF0E0235A6100229A611A46126942F05C
:100D700001021A6100BF4FF0E022106900F0010289
:100D80001AB100F48032002AF5D04FF0E022126947
:100D900022F001024FF0E0231A6100229A617047AD
:100DA0004600002000BF054A128802F04002002AD7
:100DB000F9D0C2B2014B1B1D1A80704700380140A8
:100DC00010B5FFF7D3FA7020FFF724FBFFF740FCC4
:100DD000204908700846007818B11FA0FFF7AAFE46
:100DE00002E01EA0FFF7A6FEE120FFF713FBFFF7CE
:100DF0002FFC184908700846007818B119A0FFF7B1
:100E000099FE02E018A0FFF795FE0820FFF702FB0D
:100E1000FFF71EFC0F4908700846007818B114A0AF
:100E2000FFF788FE02E013A0FFF784FE0020FFF723
:100E3000F1FAFFF70DFC074908700846007818B171
:100E40000EA0FFF777FE02E00DA0FFF773FEFFF79D
:100E5000BBFA10BD2800002033000000332D6E2D9A
:100E60000000000034000000342D6E2D0000000052
:100E700035000000352D6E2D00000000360000000A
:100E8000362D6E2D00000000FFF71EFF4FF4E130FD
:100E900000F0BCF9FFF704FB08E005A0FFF74AFEED
:100EA00000F000F940F2DC50FFF730FFF5E70000FA
:100EB000CEC2B6C8CAAAB6C8CFD4CABE0000000007
:100EC0002DE9F041002404E0002067490855601C2A
:100ED000C4B2062CF8DBFFF749FA7120FFF79AFA43
:100EE000FFF7B6FB61490870FFF7F8F95E49087033
:100EF000FFF71AFCFFF7F2F95B494870FFF714FCA3
:100F0000FFF7ECF958498870FFF70EFCFFF7E6F998
:100F10005549C870FFF708FCFFF7E0F9524908711E
:100F2000FFF702FCFFF7DAF94F494871FFF7C8FBFA
:100F3000FFF74AFA4C48007800F0680008284ED1C4
:100F4000494840784A49086047488078096840EA3B
:100F50000120474908604448C078096840EA0120F8
:100F600043490860084600680009086008460068B0
:100F70004FF47A714843000D3D4908603A48C07803
:100F80003C4908600846007800F00F0008603648C9
:100F90000079096840EA0120364908603248407902
:100FA000096840EA012033490860084600684FF4A8
:100FB000FA6148438910C1EB10502E4908602C4853
:100FC0000088000A2C490870294800784870294890
:100FD0000088000A887027480078C87008E0FF2061
:100FE0002549087048708870C87024A0FFF7A2FDDA
:100FF00023A0FFF79FFD1F4800680A21B0FBF1F214
:1010000001FB12051B480068B0FBF1F0B0FBF1F2E8
:1010100001FB1206174800686421B0FBF1F72B466C
:101020003246394617A0FFF785FD114800680A21AE
:10103000B0FBF1F201FB12050D480068B0FBF1F0C6
:10104000B0FBF1F201FB1206094800686421B0FB15
:10105000F1F72B46324639460EA0FFF76BFD08A08C
:10106000FFF768FDBDE8F08129000020280000207E
:101070003000002034000020380000206C79790016
:101080000D0A0000CEC2B6C83A256425642E256438
:1010900000000000CAAAB6C83A256425642E25645B
:1010A0000000000010B50A20FFF730FE00F014F831
:1010B0000A20FFF72BFEFFF783FE0A20FFF726FE2C
:1010C00000F040F85020FFF721FEFFF7F9FE052061
:1010D000FFF71CFE10BD000010B5FFF747F97020A8
:1010E000FFF798F9FFF7B4FA0F490870084600783F
:1010F00018B10EA0FFF71EFD02E00DA0FFF71AFDCC
:10110000BA20FFF787F9FFF7A3FA074908700846E6
:10111000007818B108A0FFF70DFD02E007A0FFF767
:1011200009FDFFF751F910BD280000203100000033
:10113000312D6E2D0000000032000000322D6E2D8A
:101140000000000010B5FFF711F97020FFF762F9F9
:10115000FFF77EFA204908700846007818B11FA0F2
:10116000FFF7E8FC02E01EA0FFF7E4FCAC20FFF76D
:1011700051F9FFF76DFA184908700846007818B160
:1011800019A0FFF7D7FC02E018A0FFF7D3FC33202B
:10119000FFF740F9FFF75CFA0F490870084600783E
:1011A00018B114A0FFF7C6FC02E013A0FFF7C2FCC1
:1011B0000020FFF72FF9FFF74BFA074908700846A0
:1011C000007818B10EA0FFF7B5FC02E00DA0FFF704
:1011D000B1FCFFF7F9F810BD28000020370000002F
:1011E000372D6E2D0000000038000000382D6E2DC8
:1011F0000000000039000000392D6E2D00000000B5
:101200003130000031302D6E2D00000010B586B059
:101210000446012144F20400FFF7A0F94FF40070E6
:10122000ADF8140003208DF8160018208DF8170073
:1012300005A91C48FEF7C5FF4FF48060ADF8140007
:1012400004208DF8170005A91648FEF7BAFF2520DF
:101250008DF8000003208DF801008DF802000120B8
:101260008DF803006846FFF73FF901940020ADF8C0
:101270000800ADF80A00ADF80C00ADF810000C2025
:10128000ADF80E0001A90848FFF7E0FB012240F28B
:1012900025510548FFF7B4FB01210348FFF77AFB0E
:1012A00006B010BD0008014000380140CC12000813
:1012B0000000002054000000540B00082013000818
:1012C00054000020CC040000640B000800A24A0473
:1012D00000000000000000000102030406070809E6
:1012E00000000000010203040102030406070809CC
:1012F00002040608000000000000000000000000DA
:101300000000000000000000FA060A0000000000D3
:1013100000FF0000000000000000000000000000CE
:0400000508000131BD
:00000001FF
